:020000040000FA
:02040000052ACB
:04040200003400348E
:02040800052AC3
:06040A00831203138501BB
:1004100088018701880189018316031306309F0034
:1004200085018601870188018901831203138801F0
:10043000CF22CF220612303088008616CF228612B5
:10044000CF220D3088008616CF228612CF22383078
:1004500088008616CF228612CF22013088008616A9
:10046000CF228612CF22063088008616CF2286122F
:10047000CF220616483088008616CF228612CF2259
:10048000653088008616CF228612CF22723088000F
:100490008616CF228612CF22653088008616CF229C
:1004A0008612CF22A03088008616CF228612CF2255
:1004B000753088008616CF228612CF22A0308800A1
:1004C0008616CF228612CF22673088008616CF226A
:1004D0008612CF226F3088008616CF228612CF2256
:1004E0002E3088008616CF228612CF222E3088002A
:1004F0008616CF228612CF22CF220612C030880065
:100500008616CF228612CF2206164730880086161E
:10051000CF228612CF224F3088008616CF22861235
:10052000CF224F3088008616CF228612CF22443049
:1005300088008616CF228612CF22A0308800861629
:10054000CF228612CF224C3088008616CF22861208
:10055000CF22553088008616CF228612CF22433014
:1005600088008616CF228612CF224B30880086164E
:10057000CF228612CF22A03088008616CF22861284
:10058000CF223A3088008616CF228612CF22293019
:1005900088008616CF228612CF220000CD2A643032
:1005A000A2000A30A1000130A000A00BD52AA10BA7
:1005B000D32AA20BD12A0800FF30A500C830A4001E
:1005C0003230A300A30BE22AA40BE02AA50BDE2AFB
:0205D000080021
:02400E00323F3F
:00000001FF
